:030000000200B942
:0C00B900787FE4F6D8FD75816402010038
:0A02E3003F065B4F666D7D077F6FDD
:0A02D8000163000164FF0221000031
:100202008F088D098B0A12029EAF081201972000F7
:1002120002C322AF09120197200002C322AF0A12C1
:0C0222000197200002C3221202C7D32261
:100250008F088D0912029EAF08120197200002C379
:1002600022AF09120197200002C3221202C7D32233
:02022E008F0837
:1002300012029EE50804FF1201972000037F0022AE
:0F0240001201D38F09D2011202701202C7AF0947
:01024F00228C
:080003008F993099FDC299228A
:1002B4005389F0438901758AB0758C3CC28DD28C08
:0302C400D2A9229A
:03000B00020145AA
:09014500C0E0C0D075D000C00775
:10014E00C28D0522E52270020521758A00758C4C40
:10015E00E52264014521702AF580F521F522E5643A
:10016E00B4FF057564FE8007E5647003756401AF26
:10017E0064120003E56404FF120003E56414FF1229
:02018E0000036C
:07019000D007D0D0D0E0320F
:10028800759850438920438780758DF9758BF9D20D
:060298008EC2ACD2AF22C1
:10000E00D2AF1202881202B4E56314602914603E66
:10001E00146053146068240470797D417F9012023D
:10002E00507F9012022E7523008F24E523C313E513
:10003E002413F564805D7D427F901202507F9012F2
:10004E00022EEF75F002A485F025F52680457D433E
:10005E007F901202507F9012022EEF75F002A4854F
:10006E00F027F528802D7D407F901202507F901250
:10007E00022EEF75F002A485F029F52A8015E52CE5
:10008E00AE2B7802CEC313CE13D8F9FB7D407F90F2
:10009E0012020285232B85242C0563E563D3940479
:0B00AE005003020016E4F56302001688
:10029E00D2A000D2A10000000000C2A00000000009
:0602AE0000C2A1000022C5
:1002C700C2A000D2A10000000000D2A000000000E0
:0102D7002204
:10019700E4FEEFA806088002C333D8FC30E704D298
:1001A700A08002C2A000D2A10000000000C2A10EE0
:1001B700BE08DF0000D2A00000D2A100000030A0DE
:0B01C70004C2008002D200C2A10000B0
:0101D200220A
:1001D300E4FFD2A0FE00000000C2A1C2A100000003
:1001E30000000000D2A1D2A100000000EF25E0FF33
:0E01F30030A0010F00000EBE08DBC2A100000C
:0102010022DA
:10027000200104C2A08002D2A0000000D2A1000090
:08028000000000C2A1000022F1
:1000C50002000EE493A3F8E493A34003F68001F243
:1000D50008DFF48029E493A3F85407240CC8C3333C
:1000E500C4540F4420C8834004F456800146F6DF0B
:1000F500E4800B01020408102040809002D8E47EC1
:10010500019360BCA3FF543F30E509541FFEE493FF
:10011500A360010ECF54C025E060A840B8E493A3C6
:10012500FAE493A3F8E493A3C8C582C8CAC583CAF1
:10013500F0A3C8C582C8CAC583CADFE9DEE780BEA9
:0102E200001B
:00000001FF
