:030000000200B942
:0C00B900787FE4F6D8FD75816402010038
:0A02DC003F065B4F666D7D077F6FE4
:0A02D1000163000164FF0221000038
:1001FB008F088D098B0A120297AF0812019020000D
:10020B0002C322AF09120190200002C322AF0A12CF
:0C021B000190200002C3221202C0D32276
:100249008F088D09120297AF08120190200002C38E
:1002590022AF09120190200002C3221202C0D32248
:020227008F083E
:10022900120297E50804FF1201902000037F0022C3
:0F0239001201CC8F09D2011202691202C0AF0963
:010248002293
:080003008F993099FDC299228A
:1002AD005389F0438901758AB0758C3CC28DD28C0F
:0302BD00D2A922A1
:03000B00020145AA
:09014500C0E0C0D075D000C00775
:10014E00C28D0522E52270020521758A00758C4C40
:10015E00E522640145217023F580F521F522E56441
:10016E00B4FF057564FE8007E5647003756401AF26
:0B017E0064120003E56404FF1200039C
:07018900D007D0D0D0E03216
:10028100759850438920438780758DF9758BF9D214
:060291008EC2ACD2AF22C8
:10000E00D2AF1202811202ADE56314602914603E74
:10001E00146053146068240470797D417F9012023D
:10002E00497F901202277523008F24E523C313E521
:10003E002413F564805D7D427F901202497F9012F9
:10004E000227EF75F002A485F025F52680457D4345
:10005E007F901202497F90120227EF75F002A4855D
:10006E00F027F528802D7D407F901202497F901257
:10007E000227EF75F002A485F029F52A8015E52CEC
:10008E00AE2B7802CEC313CE13D8F9FB7D407F90F2
:10009E001201FB85232B85242C0563E563D3940481
:0B00AE005003020016E4F56302001688
:10029700D2A000D2A10000000000C2A00000000010
:0602A70000C2A1000022CC
:1002C000C2A000D2A10000000000D2A000000000E7
:0102D000220B
:10019000E4FEEFA806088002C333D8FC30E704D29F
:1001A000A08002C2A000D2A10000000000C2A10EE7
:1001B000BE08DF0000D2A00000D2A100000030A0E5
:0B01C00004C2008002D200C2A10000B7
:0101CB002211
:1001CC00E4FFD2A0FE00000000C2A1C2A10000000A
:1001DC0000000000D2A1D2A100000000EF25E0FF3A
:0E01EC0030A0010F00000EBE08DBC2A1000013
:0101FA0022E2
:10026900200104C2A08002D2A0000000D2A1000097
:08027900000000C2A1000022F8
:1000C50002000EE493A3F8E493A34003F68001F243
:1000D50008DFF48029E493A3F85407240CC8C3333C
:1000E500C4540F4420C8834004F456800146F6DF0B
:1000F500E4800B01020408102040809002D1E47EC8
:10010500019360BCA3FF543F30E509541FFEE493FF
:10011500A360010ECF54C025E060A840B8E493A3C6
:10012500FAE493A3F8E493A3C8C582C8CAC583CAF1
:10013500F0A3C8C582C8CAC583CADFE9DEE780BEA9
:0102DB000022
:00000001FF
